:100000000C9437020C947E020C947E020C947E02B7
:100010000C947E020C947E020C947E020C947E0260
:100020000C947E020C947E020C940B250C94DF251C
:100030000C94FC1C0C947E020C947E020C947E02A8
:100040000C947E020C947E020C947E020C947E0230
:100050000C947E020C94471D0C947E020C947E023C
:100060000C947E020C947E020C947E020C947E0210
:100070000C947E020C947E020C947E020C947E0200
:100080000C947E020C947E020C947E020C947E02F0
:100090000C947E020C947E020C947E020C947E02E0
:1000A0000C947E020C947E020C947E0217000700D2
:1000B00009000A000B00060005000100C35CC55CD6
:1000C000C65CC25CC95CCA5C32190A00047F3F1F6F
:1000D000643214643214783C1E1E140A052223254F
:1000E0002628292A2C2D2F3032333536383A3B3DFD
:1000F0003E4042434547494A4C4E5051535557594B
:100100005A5C5E6062646668696B6D6F7173757767
:10011000797B7D7F81838587898A8C8E9092949666
:10012000989A9C9E9FA1A3A5A7A8AAACAEAFB1B375
:10013000B4B6B8B9BBBCBEBFC1C2C3C5C6C7C9CAC5
:10014000CBCCCDCED0D1D2D2D3D4D5D6D7D7D8D987
:10015000D9DADADBDBDBDCDCDCDCDCDDDDDDDDDCE5
:10016000DCDCDCDCDBDBDBDADAD9D9D8D7D7D6D5F7
:10017000D4D3D2D2D1D0CECDCCCBCAC9C7C6C5C3B9
:10018000C2C1BFBEBCBBB9B8B6B4B3B1AFAEACAA06
:10019000A8A7A5A3A19F9E9C9A98969492908E8CB6
:1001A0008A89878583817F7D7B79777573716F6D90
:1001B0006B6968666462605E5C5A5957555351506A
:1001C0004E4C4A4947454342403E3D3B3A3836351E
:1001D0003332302F2D2C2A292826252322FFAA7FCF
:1001E0005540000101010101010101010202020269
:1001F00002020202020303030303030303040404D1
:100200000404040405050505050606060606070799
:1002100007070708080808090909090A0A0A0B0B51
:100220000B0C0C0C0D0D0D0E0E0E0F0F0F101011F0
:100230001111121213131414151516161717181876
:1002400019191A1A1B1B1C1D1D1E1E1F20202122DE
:1002500022232424252626272829292A2B2C2D2D24
:100260002E2F30313232333435363738393A3B3C41
:100270003D3E3F404142434445464748494A4C4D34
:100280004E4F50515354555658595A5B5D5E5F61FD
:100290006264656668696B6C6D6F70727375777890
:1002A0007A7B7D7E8082838587888A8C8E8F9193EE
:1002B0009596989A9C9EA0A2A3A5A7A9ABADAFB115
:1002C000B3B5B7BABCBEC0C2C4C6C9CBCDCFD1D4FA
:1002D000D6D8DBDDDFE2E4E7E9EBEEF0F3F5F8FAA0
:1002E000FDFF0403300000001C0350006F0063009A
:1002F0006B0065007400200056006F006C007400F5
:1003000065007800000018034D00690073006F005D
:100310006E006F0057006F0072006B0073000000EA
:100320000403090409023B00020100A0FA090400C9
:100330000001030101000921110100012240000711
:1003400005810308000A09040100010300000009F7
:10035000211101000122BC000705820320000A12BE
:1003600001100100000008EDFE56C4010001020367
:100370000105010902A10185020901A10005091970
:100380000129051500250195057501810295017565
:100390000381010501093009311581257F95027519
:1003A00008810609381581257F95017508810605A4
:1003B0000C0A38021581257F950175088106C0C099
:1003C00005010980A101850319012AB7001501263D
:1003D000B700950175108100C0050C0901A10185C8
:1003E0000419012AA002150126A0029501751081A9
:1003F00000C005010906A1018505050719E029E7E7
:10040000150025019508750181020507190029EFDE
:100410001500250195F075018102050819012905CE
:10042000950575019102950175039101C0050109BA
:1004300006A101050719E029E715002501950875B2
:100440000181029501750881010507190029FF1531
:100450000026FF0095067508810005081901290589
:10046000950575019102950175039101C000112454
:100470001FBECFEFDAE0DEBFCDBF04B603FE27C05C
:100480008091FD029091FE02A091FF02B0910003C5
:100490008730904BA740B04BD1F41092FD021092E0
:1004A000FE021092FF021092000314BE84B7877FF1
:1004B00084BF0FB6F894A8958091600088618093FE
:1004C0006000109260000FBEE0E0F8E3099511E0D3
:1004D000A0E0B1E0E6E5F2E502C005900D92AC3E89
:1004E000B107D9F722E0ACEEB1E001C01D92AD3FFB
:1004F000B207E1F70E943C220C94ED280C94000016
:10050000811106C082EF611101C083EF0C944F127C
:10051000813029F480EF6111F9CF81EFF7CF089591
:1005200081E0089581E008950C94920208950C945E
:1005300096021F93CF93DF9300D000D00F92CDB7D8
:10054000DEB749835A836B833091300289819A8167
:1005500031111DC06623B9F02223A9F00E94FF19B2
:10056000182F682F89819A810E94AB1969817A813D
:10057000812F0F900F900F900F900F90DF91CF91E0
:100580001F910C944F030E94D719182FEFCF0E9490
:10059000FF1969817A81EDCFFC01262F40815181BD
:1005A0006281738184810C949902CF93DF93EC0173
:1005B00060E00E94CC02BE01DF91CF910C949702C3
:1005C0000E94431B811102C00E94EA1B0C945D052E
:1005D0000C94600508950C94EA0281E008950C944F
:1005E000ED02CF93C82F0E94EB028C2FCF910C9479
:1005F000EF0208950E9415150E94F9022FEF84E37F
:100600009CE0215080409040E1F700C000000C9435
:100610006B1D0F931F93CF93DF93EC0161E00E945A
:10062000CC028C01BE010E949402882359F1BE01C4
:10063000C8010E94980E882329F1BE01C8010E94BA
:10064000D90E8823F9F0BE01C8010E94FC0F88234F
:10065000C9F0BE01C8010E94990C882399F08A81D3
:10066000882339F001158CE5180751F00E3D1C4523
:1006700079F0CE01DF91CF911F910F910C949002F0
:100680000E94FA0280E0DF91CF911F910F910895AF
:100690000E94EA1BF7CF90E080E008950895E62FCE
:1006A000272F280F3327331FC90127E0289FB001C8
:1006B000299F700D1124E60FF72FF11DEE0FFF1F7C
:1006C000E455FF4F859194910895FC01EE0FFF1FB3
:1006D000E853FF4F859194910895CF93DF930E9443
:1006E0004F030E948204EC01811520E5920708F077
:1006F00042C0811530E4930708F0BDC0883E9105E3
:1007000028F5803E910508F09DC0883A910588F44F
:10071000853A910508F08FC08130910509F492C0A7
:10072000009709F48FC0049708F08CC0D0E0C0E0B7
:1007300089C08F3B910508F489C0805C9109C03C59
:10074000D105A0F30E946503EC017CC081159042A5
:1007500050F4C11581E0D80708F074C0C03FD1053E
:1007600028F3D0656FC0C11590E3D90708F079C0B0
:10077000CE019F70E7CF811525E5920758F58115C9
:1007800034E5930708F0A6C0811542E5940750F4BC
:10079000C11581E5D80708F471C0DC2FCC27C16FE3
:1007A000D06A50C0982F969596959E012370332756
:1007B000C115D34508F07FC0C1E0D0E002C0CC0F26
:1007C000DD1F2A95E2F720E2929FC0011124C82B79
:1007D000D92B6FC0C11589E5D807A8F4C11598E5D4
:1007E000D90708F07CC0C11526E5D20708F09ECFD6
:1007F0008C2F0E941905C82FD0E0DC2FCC27CC27E6
:10080000DF71D0621FC0C1153AE5D30708F46CC090
:10081000CE0190568115904208F088CF8D2F8F71B0
:100820000E94190590E0982F882788279F719C01C6
:100830002C2BE901E6CFC55AD0E0CE58DE4FC88157
:10084000D0E0D064CE01DF91CF910895C85AD0E0B6
:10085000CC0FDD1FCC5BDE4F0990D881C02DD46456
:10086000F1CFCE019927D3FF03C0EC01D86CEACFBA
:10087000EC01D06CE7CFDF70D06AE4CFCE01E4E0CA
:1008800096958795EA95E1F783702C2F2695269506
:10089000237090E2299F90011124382B8C2F8370B4
:1008A000C1E0D0E002C0CC0FDD1F8A95E2F7C22B79
:1008B000D32BDC68C7CFC1E0D0E002C0CC0FDD1F76
:1008C0002A95E2F730E2939FC0011124C82BD92B5F
:1008D000DA68B8CFD82FCC27C46FD06AB3CFDC2F5B
:1008E000CC27C06FD06AAECF8C2F8F700E941905B5
:1008F00034E0D695C7953A95E1F7CF709C2FEC017F
:10090000D069A0CF82389105B1F1B0F4813391055F
:1009100009F475C048F48932910509F469C08A3236
:10092000910509F473C008958533910509F459C000
:100930008933910501F10895833E9105A9F138F4B9
:10094000803E9105F9F0823E910549F10895863E79
:100950009105A9F1873E9105C9F1843E910519F5EC
:100960002091EF0221FF1FC08091EE0284FD14C090
:1009700087EE90E008952091EE022370A1F080EEC2
:1009800090E008952091EE0220FD47C03091EF02E3
:1009900030FF09C024FF44C090E080E004C02091F3
:1009A000EE0222FDF7CF08952091EE0222FD3BC01A
:1009B0003091EF0230FDE3CF24FFF5CFEDCF209152
:1009C000EE0223FFF0CF24FDE7CFD2CF2091EE023D
:1009D00023FD2CC03091EF0231FFEECF84EE90E08A
:1009E00008952091EE0225FFDECF89E290E0089580
:1009F0002091EE0225FFD7CF85E390E00895209166
:100A0000EE0226FFD0CF8AE290E008952091EE0218
:100A100026FFC9CF81E390E0089589E390E008952F
:100A200083EE90E0089582EE90E0089586EE90E0E7
:100A300008959091EE0292FF06C0282F2871283069
:100A4000F9F4877F846093FF06C0282F287128312E
:100A5000F1F4877E84612091EF0220FF06C0382FD9
:100A600038713830D9F4877F816021FF06C0282F84
:100A700028712831D1F4877E816194FD877E0895A5
:100A8000282F24712430F9F68B7F8860DCCF282F43
:100A90002471243101F78B7E8861DDCF382F3171CD
:100AA000313019F78E7F8860E0CF282F21712131F6
:100AB00021F78E7E8861E1CF08950C945C0508953E
:100AC0000C945F05E82FF0E0E353FD4F808108951B
:100AD0000895CF93A5E7B1E04CE751E061E070E005
:100AE0008D918F3F91F0E82FE295EF70F0E0C1A17A
:100AF0008F709B0101C0220F8A95EAF7922F909583
:100B00009C2391A382A1822B82A34A175B0741F702
:100B10001092CC021092CD0281E00E94CE05CF91BE
:100B20000C94E002CF93A5E7B1E050E040E030E064
:100B300061E070E02D912F3FA9F0E22FE295EF7078
:100B4000F0E080A190E02F7002C0959587952A95DE
:100B5000E2F780FD21C0CB01042E01C0880F0A946A
:100B6000EAF7382B4F5F5F4F4730510519F78091F7
:100B7000CC02C0E0831719F03093CC02C1E02C2FD7
:100B800041E06DEC72E08CEC92E00E94CF050E9497
:100B9000E8028C2FCF91089580E0E3CF0895FF9273
:100BA0000F931F93CF93DF93F82E092F162FD72F74
:100BB000C42F222349F081E08093EE010E942C1D76
:100BC0009093ED018093EC018091EE018823A1F0D8
:100BD0008091EC019091ED010E94381D069760F024
:100BE000EF2DF02FA12FBD2FCE0FDF2FD11DEC1732
:100BF000FD0741F41092EE01DF91CF911F910F910B
:100C0000FF90089581918D93F2CFAF92BF92CF92D2
:100C1000DF92FF920F931F93CF93DF93362F472FCF
:100C2000E82FF0E0EE51FE4F71110DC06491762F68
:100C3000862FDF91CF911F910F91FF90DF90CF9082
:100C4000BF90AF900895C72FD0E02491F22E022FCD
:100C500010E056E0659FC0011124EFEFF0E0BF0106
:100C60000E94AB27832F90E0880F991F35E5369FB0
:100C7000D001379FB00D11248A1B9B0B982F990F21
:100C8000980F6F01CC1ADD0AC09ED001C19EB00D35
:100C9000D09EB00D11248B2F949FA0011124452FBD
:100CA00055276F01C41AD50AC09EA001C19E500DE0
:100CB000D09E500D11245F01A91AB108AC9E6001AD
:100CC000AD9ED00CBC9ED00C1124CD2CDD24EC1993
:100CD000FD09E09FE001E19FD00DF09FD00D1124B0
:100CE000ED2F62307105A1F048F46115710569F0CE
:100CF0006130710589F0EB2F852F07C064307105D5
:100D000071F088F066307105B1F76E2F722F91CFB8
:100D1000E22F2B2F8D2FF9CFE22F252FF6CFEB2FA0
:100D2000822F2D2FF2CF2B2F8F2DE52FEECF089571
:100D3000CF93DF93762FE901682F842F0E94050659
:100D4000798368838A83DF91CF9108958091CE0261
:100D5000982F9E7F29F4817082608093CE0208953F
:100D60008635E8F381708465F8CF88E090E00C94D4
:100D70004A28CF92DF92EF92FF926B017C010E9492
:100D8000A606B701A60188E090E0FF90EF90DF9003
:100D9000CF900C946828EEECF2E083E0808311821F
:100DA0008FEF82838383148260817181828193813A
:100DB0000C94B9068091CE0280FF02C086950895FA
:100DC00080E008958091D202833018F48F5F809381
:100DD000D2026091CE027091CF028091D0029091A8
:100DE000D1020C94B9068091D202882319F0815067
:100DF0008093D2026091CE027091CF028091D00296
:100E00009091D1020C94B90670E00C94090D609198
:100E100007018091CE0280FF0AC08091060123E085
:100E2000829FC00111248D529D4F0C940407809124
:100E300008019091090123E0829FF0011124ED52F5
:100E4000FD4F891750F71182108212828F5F3396FF
:100E5000F8CF9091CE0290FF14C09091080120919C
:100E6000090133E0939FF0011124ED52FD4F9217D9
:100E700010F00C9407078183608342839F5F339651
:100E8000F6CF0895CF93DF9300D00F92CDB7DEB7A2
:100E90009091CE0290FF0AC09E012F5F3F4F0E94AB
:100EA00098064B8169818A810E9429070F900F90D3
:100EB0000F90DF91CF910895CF93DF93EC01EC81F8
:100EC000F0E0E352FF4F4491EEECF2E06281818169
:100ED0000E9442078C818F5F8C83DF91CF910895B0
:100EE000CF93DF93EC01EEECF2E0438162818C81E1
:100EF0000E9442078C818F5F8C83DF91CF91089590
:100F00000F931F93CF93DF9300D00F92CDB7DEB72F
:100F10008C018091EF0181110AC09E012F5F3F4F2C
:100F20004FEF6FEF0E9498068A818093EF01F801DE
:100F30006481613069F08091EF0140E0662361F0E7
:100F400040E0623011F44091EF0180E060E004C0C5
:100F50006091EF0140E080E00E942907F801848160
:100F600090E0019663E070E00E94BF2784830F90B9
:100F70000F900F90DF91CF911F910F910895AF9235
:100F8000BF92CF92DF92EF92FF920F931F93CF9376
:100F9000DF9300D00F92CDB7DEB7182FF62E042FB7
:100FA000E22E9091CE0290FF29C0E92FE695AE2F58
:100FB000B0E0A458BE4F8C9180931C029E7F92306B
:100FC00059F59E012F5F3F4F812F0E9498064B815C
:100FD00069818A810E9429071093CF02F092D00282
:100FE0000093D102EE2051F06091CE027091CF02B9
:100FF0008091D0029091D1020E94B9060F900F907B
:101000000F90DF91CF911F910F91FF90EF90DF90A4
:10101000CF90BF90AF900895823019F40091D10223
:10102000DBCF863019F41091CF02D6CF8930D9F3B7
:10103000893191F6E9518E2F8170D82EE695F0E036
:10104000E352FE4FA590B490C12CBB2460910A01DD
:10105000C61618F00E940707BFCF2C2D30E0A29EC5
:10106000C001A39E900DB29E900D112470E00E94CD
:10107000AB27812FD11013C0860F40910801420F7A
:10108000532F511D9A01220F331F240F351F2D524C
:101090003D4F402F6F2D0E949806C394D7CF861BDB
:1010A000ECCFEEECF2E09181282F4381628188E061
:1010B000890F0C94BF0781E00C945108EEECF2E02C
:1010C0009181282F4381628188EF890F0C94BF079B
:1010D00081E00C945E08EEECF2E0628121E1620FA7
:1010E00008F46FEF282F438181810C94BF0781E0C2
:1010F0000C946B08EEECF2E0628121E1621B08F4D3
:1011000060E0282F438181810C94BF0781E00C941B
:101110007A08EEECF2E0438121E1420F08F44FEF50
:10112000282F628181810C94BF0781E00C9489088B
:10113000EEECF2E0438121E1421B08F440E0282F6D
:10114000628181810C94BF0781E00C94980820E0B3
:101150000C94BF07EF92FF921F93CF93DF93EC01A4
:1011600010E0EE24EA94F12C60910A01161770F059
:101170000E9407079A818C8190FF27C08F5F8C8324
:10118000DF91CF911F91FF90EF900895209108017A
:10119000422F410F5527551FCA019A01220F331FB5
:1011A000280F391F2D523D4F70E0C7010E94BF2705
:1011B000962F8C814091D1026091D002199F800DB1
:1011C00011240E9498061F5FCFCF8150D8CFAF92D5
:1011D000BF92CF92DF92EF92FF920F931F93CF9324
:1011E000DF93FC0182810FEF80FF01E010E047E018
:1011F000A42E80910A011817C8F00E940707809159
:10120000F101013009F055C0811102C080910A013D
:1012100081508093F101DF91CF911F910F91FF9049
:10122000EF90DF90CF90BF90AF900895C0910801EC
:10123000C12ED12CCC0DDD2DD11DCE01880F991FD3
:10124000C80FD91FCD52DD4F198218821A8234E09F
:10125000E32EF12CB12C8091F1018B0D88301CF123
:101260006A2D0E949D27892F082E000C990BC81605
:10127000D90691F48091D1028E9DA0018F9D500DD1
:10128000112455954795559547959E016091D0023B
:101290008091CF020E949806B00EF1E0EF1AF1089B
:1012A000D1F61F5FA6CF87FFDFCF90910A01890F8C
:1012B000DBCF90E0019660910A0170E00E94BF27A9
:1012C000A8CF0F931F93CF93DF9380910801909144
:1012D000090123E0829FF0011124ED52FD4F89178F
:1012E00040F1C0E0D3E060910A01C61740F10E94CE
:1012F0000707209104018091F001820F8093F00193
:1013000090910501920F90930501191654F4082E3F
:10131000000C990B40910A014150550B8417950719
:101320001CF0219520930401DF91CF911F910F9123
:1013300008951182108212828F5F3396D0CF0C2FC6
:1013400010E070E0C8010E94BF2720910801820FC1
:10135000482F50E02091F001022E000C330B0217B1
:101360001307BCF020910501022E000C330B20174F
:1013700031077CF08D9F900111242D523D4F4091FB
:10138000D1026091D0028091CF020E949806CF5F77
:10139000AACFFA01EE0FFF1FE40FF51FED52FD4F2C
:1013A000118210821282F3CF0F931F93CF93DF939A
:1013B0008C01FC0184819581019681709927958328
:1013C0008483C0E0D5E580910A01C81730F0DF9131
:1013D000CF911F910F910C94070720910801422F84
:1013E0004C0F5527551FCA019A01220F331F280F92
:1013F000391F2D523D4F8C2F8695F8014481558120
:10140000840F952F911D81704091D1026091D0027F
:101410008D9F802D11240E949806CF5FD4CF0F930B
:101420001F93CF93DF93EC0110E000E090910A014D
:101430009017110609F06CF40E9407078C8190E068
:101440000196817099278C83DF91CF911F910F9125
:10145000089520910801A801420F511D9A01220F01
:10146000331F240F351F2D523D4F4C816091D00208
:101470008091CF0296959017110651F04CF04423BD
:1014800049F04091D1020E9498060F5F1F4FCECFC6
:101490004423B9F340E0F7CF8F929F92AF92BF926F
:1014A000CF92DF92EF92FF920F931F93CF93DF9330
:1014B000FC01B280948081E0848300E015E05BE46D
:1014C000A52E88248394EE24EA94F12C7BE4C72E85
:1014D000D12C80910A01081770F0DF91CF911F91F4
:1014E0000F91FF90EF90DF90CF90BF90AF909F90C3
:1014F0008F900C940707C02FD0E01C9FF0011D9F18
:10150000F00D1124EE50FE4F91101CC01382128278
:1015100020910801CE01820F911D9C01220F331FE3
:10152000280F391F2D523D4F1C9FF0011D9FF00DBC
:101530001124EE50FE4F4281618180810E94980605
:101540000F5FC7CF2381222379F121502383348178
:101550008A2D821B311101C0822F1C9FF0011D9F1B
:10156000F00D1124EE50FE4F9091D102899FC001E1
:101570001124B6010E94AB276283211104C03323DA
:1015800011F01482A38222E02B1510F21C9FF001AF
:101590001D9FF00D1124EE50FE4F8091CF028083ED
:1015A0008091D0028183B4CF0E942528823091405F
:1015B0000CF0AECF82E08B1530F50E942528B701E4
:1015C0000E94BF271C9FF0011D9FF00D1124EE50BB
:1015D000FE4F808322E02B15C8F40E94252820911D
:1015E000D0022695622F70E00E94BF27280F1C9F13
:1015F000F0011D9FF00D1124EE50FE4F2183128249
:10160000A382848285CF8091CF02DCCF2091D0024B
:10161000EECFEEECF2E080818E7F8083608171817D
:10162000828193810E94B90610921D022FEF80E7FC
:1016300092E0215080409040E1F700C000000C94FF
:1016400007076091CE02669570E04BE050E08BE0BA
:1016500091E00E943528892B19F481E080931D02C6
:101660000E942C1D9093160280931502089590916C
:10167000CE0290FF35C09170811128C09260909386
:10168000CE02662351F06091CE027091CF0280911C
:10169000D0029091D1020E94B9066091CE02669567
:1016A00070E04BE050E08BE091E00E943528892B00
:1016B000A1F010921D0281E0809318024091D102A6
:1016C0006091D0028091CF020C94A7088B3210F069
:1016D0009465D5CF880F982BD2CF0E94210BEBCFEA
:1016E0000895682F9091CE02969581E0890F8B32F4
:1016F00008F081E00C94370B81E00C94710B682F9B
:101700009091CE0296958FEF890F09F48AE20C949E
:10171000370B81E00C947F0B61E00C94370BEEECFF
:10172000F2E080818160808386950C948C0B80919F
:10173000CE0280FD0C94090B0C948F0B60E00C948E
:10174000370B80911B0281112EC00E94431B811117
:1017500004C00E94EA1B0E94CB060E94B50660935B
:10176000CE027093CF028093D0029093D1026E7F0D
:1017700061F40E94CB060E94B5066093CE0270937E
:10178000CF028093D0029093D1020E94A6061092BD
:101790001D028091CE0280FF03C086950E949E0BA1
:1017A00081E080931B0208950F931F93CF93DF93E3
:1017B00080911D02882309F49DC080911C02E09154
:1017C000CE02E695E81BE09317028230C9F5F0E0FF
:1017D000E752FF4FE491CE2FD0E00CE517E0809167
:1017E0001802882389F0109218020E942C1D9E0175
:1017F00020953095820F931F9093160280931502C7
:1018000010921A02109219028091150290911602FC
:101810000E94381D8C179D0708F46CC0E0911502DA
:10182000F0911602CE0FDF1FD0931602C09315025F
:1018300085E192E0F801DF91CF911F910F9109941A
:10184000863049F4F0E0EA52FF4FE491CE2FD0E029
:1018500000E717E0C4CF893051F4E695F0E0ED528F
:10186000FF4FE491CE2FD0E00AEA18E0B8CF8F30D6
:1018700051F4E695F0E0E053FF4FE491CE2FD0E035
:1018800007EE18E0ACCF853149F4F0E0E353FF4FA9
:10189000E491CE2FD0E001E619E0A1CFC8EED3E06D
:1018A00004ED19E0883109F49ACF833239F4EBEC76
:1018B000F0E0C591D49100E817E091CFC4EFD1E0FA
:1018C0000FE01AE0843209F48ACFC0EDD7E007E9CF
:1018D00016E0853209F083CF8E2F63E00E949127B6
:1018E000E92FF0E0E853FF4FE491CE2FD0E00CE475
:1018F0001AE075CFDF91CF911F910F910895FA01F2
:10190000811101C0FB010994CF93DF93C82FD62F1B
:101910000E94DA068C1740F00E94DA068D1720F438
:10192000DF91CF910C947C0B8C2FDF91CF910C9495
:101930008C0B0F931F93CF938C01FB01C281CC239F
:1019400009F465C00E94941A8272F801E25CFC45B9
:10195000E431F10538F4E151F74D0C94D3270E949E
:10196000970BC0E08C2FCF911F910F91089549E8FC
:101970005BE06CE77BE00E947F0CF3CF4CE75BE021
:1019800069E87BE0F8CF48E658E06BE578E0F3CF14
:101990004BE558E068E678E0EECF46E858E067E7C8
:1019A00078E0E9CF47E758E066E878E0E4CF44EA3A
:1019B00058E065E978E0DFCF45E958E064EA78E08F
:1019C000DACF43EF56E062EE76E0D5CF42EE56E056
:1019D00063EF76E0D0CF81E00E948C0BC2CF65E050
:1019E00082E00E94840CBDCF68E086E0FACF6EE012
:1019F00089E0F7CF64E18FE0F4CF67E185E1F1CFD3
:101A000088E1EACF62E289E1ECCF83E2E5CFC1E091
:101A1000A9CF259A45B14F7D55B15062EFB7F894E3
:101A20009B01220F331F260F371F280F391F28173E
:101A3000390741F4EFBF8FE594E00197F1F700C05B
:101A400000000895DC016D91CD0178E055B90000EA
:101A500000C067FF45B9660F000000C000C000C0AD
:101A600045B900C07A9591F7E2CF0C948002AF920D
:101A7000BF92CF92DF92EF92FF920F931F93CF937B
:101A8000DF93A9EBB1E027EB31E082E2A82E82E000
:101A9000B82E6BEB71E041E050E00D91802F829504
:101AA0008F7090E0FC01C1A10F707A01002E01C07F
:101AB000EE0C0A94EAF7FE2DF095CF23FC01C1A3AA
:101AC000C2A1CE29C2A3E90119919E01E12FE2959D
:101AD000EF70F0E0F1A01F706A01012E01C0CC0C84
:101AE0000A94EAF7EC2CE094EF20E1A2F2A0FC28A3
:101AF000F2A2EC0188A190E002C0959587950A9525
:101B0000E2F78170E0A1F0E002C0F595E7951A9543
:101B1000E2F790E0E0FD92E0892BF50181935F010F
:101B20006A177B0709F0B9CFDF91CF911F910F9111
:101B3000FF90EF90DF90CF90BF90AF9008958F927D
:101B40009F92AF92BF92CF92DF92EF92FF920F934C
:101B50001F93CF93DF9302E212E089EBC82E81E05E
:101B6000D82E97EBE92E91E0F92E20E2A22E22E06A
:101B7000B22ECEE1D2E0912C33E0832ED801EC914D
:101B8000EE0FEE0FED938D01D6012D916D01A22F79
:101B9000A295AF70B0E090968C9190E02F7002C04B
:101BA000959587952A95E2F781709927D7014D91F0
:101BB0007D01A42FA295AF70B0E090962C9130E0FB
:101BC0004F7002C0359527954A95E2F7A9014170FB
:101BD000552720FF02C042E050E0842BE82BD801BB
:101BE0001197EC93EF70F0E0E955FE4F8081F5011D
:101BF0009081890F808383303CF088818F5F888358
:101C000060E0892D0E94350DD5018C918E3F3CF40A
:101C100088818150888361E0892D0E94350DF5010E
:101C20008081682D0E949D27D5019D935D0121969D
:101C3000B1E09B120DC0DF91CF911F910F91FF90EA
:101C4000EF90DF90CF90BF90AF909F908F900895CE
:101C50009924939493CF0F931F93CF93DF93C62F21
:101C6000D42F022FFC0182818823C9F060932602C1
:101C70000E942C1D909325028093240280E28C0FF9
:101C8000883008F050C0C77081E001C0880FCA9545
:101C9000EAF7DF91CF911F910F910C94621210918E
:101CA0002602161335C080912402909125020E94CD
:101CB000381D883C910560F5C0E2CD0F1D17B9F0C5
:101CC00080E2810F883040F4177081E001C0880FF6
:101CD0001A95EAF70E946912C83048F481E09D2FF6
:101CE000977001C0880F9A95EAF70E946212802FC0
:101CF0000E944F12C830B8F4D77081E001C0880F3D
:101D0000DA95EAF7DF91CF911F910F910C94691248
:101D100080E28C0F883038F4C77081E001C0880FF2
:101D2000CA95EAF7EFCFDF91CF911F910F910895F8
:101D30009C01CB01233F4CE5340731F190F4283D61
:101D4000FCE53F07E9F0293D4CE5340769F1273D03
:101D50003C4579F426E241EE61EE0E942B0E80E0D4
:101D60000895253FFCE53F07B9F090F0263F3C453C
:101D7000B9F0FC0182818823D1F0109226020895E7
:101D800027E245EE65EEE9CF26E241EE60EEE5CFD3
:101D900027E245EE64EEE1CF26E241EE62EEDDCFD2
:101DA00027E245EE66EED9CF28E241E0EBCF81E0B5
:101DB0000895CF93DF93EC01FB018281882309F41E
:101DC00019C1C230FCE5DF07C0F1C6319CE5D90777
:101DD00030F09E012A5F3C452930310570F50E94A4
:101DE000601B9093EF028093EE02C031ECE5DE07BA
:101DF00009F4CFC008F05BC0C8308CE5D80709F4FF
:101E0000B6C088F5C430ECE5DE0709F4A8C0C0F41C
:101E1000C2308CE5D80709F49CC08091EE02826044
:101E2000C330DC4509F498C08091EE029091EF0236
:101E30000E946E1B0E94151580E0DF91CF910895DE
:101E40008091EE028061C630ECE5DE0709F484C0C3
:101E50008091EE028860C730DC4508F47DC0809137
:101E6000EE02806279C0CC308CE5D80709F489C0D5
:101E700070F48091EE028C60CA30ECE5DE0709F464
:101E80006BC008F478C08091EE028E7F65C0CE30C2
:101E90008CE5D80709F479C08091EE028B7FCF30B2
:101EA000DC4508F459C08091EE028F7E55C0CB3FCF
:101EB000ECE5DE0709F457C030F5C3318CE5D807EF
:101EC00009F46FC078F4C131ECE5DE0709F465C0B0
:101ED000C231DC4509F0A8CF0E9415158091EE02B1
:101EE0008F773AC0C5318CE5D80709F462C008F491
:101EF00076C08091EF028160CA3FDC4509F094CF43
:101F00008093EF0291CFCF3FFCE5DF0709F44DC08E
:101F100088F48091EF028D7FCD3F9CE5D90781F356
:101F20008091EF028E7FCE3FDC4550F38091EF022F
:101F30008360E6CFC130FDE5DF0709F459C008F43E
:101F400044C080E0C230DD4509F06ECF0E94EC1B3A
:101F50006BCF8091EE0281608093EE0265CF80911D
:101F6000EE028460F9CF8091EF028260C9CF809148
:101F7000EE028064F1CF0E9415158091EE02806818
:101F8000EBCF8091EE028D7FE7CF8091EE02877FCD
:101F9000E3CF8091EE028F7DDFCF8091EE028F7BC9
:101FA000DBCF8091EE02837FD7CF8091EF028C7FD1
:101FB000A7CF8091EE0282FB992790F921E092272A
:101FC00090FB82F990FB83F9C7CF8091EF02982FA5
:101FD000909591708E7F892B90FB81F991CF0E9413
:101FE00015159091EE02892F97FB87F98058B4CF91
:101FF00081E0ACCF81E021CFCF93DF93EB0186313D
:102000009C4511F50E94941A9A81992399F08A7A35
:1020100091E009F490E090932702811109C089E2D0
:102020000E946F1A0E94E01A80E0DF91CF9108951C
:1020300085E3F6CF80912702811104C089E20E94D6
:10204000761AF0CF85E3FBCF81E0EFCF90932D029E
:1020500080932C020895E0912C02F0912D0230978C
:1020600021F00190F081E02D099480E00895E09145
:102070002C02F0912D02309799F0209143012223F8
:1020800059F02091EE0227FF07C0DC012C91119638
:102090002C93119725E02C930280F381E02D099475
:1020A0000895E0912C02F0912D02309739F022E052
:1020B000DC012C930480F581E02D09940895209192
:1020C0002A0230912B022817390771F090932B02C6
:1020D00080932A02E0912C02F0912D02309721F09A
:1020E0000680F781E02D099408952091280230910F
:1020F00029022817390771F090932902809328024A
:10210000E0912C02F0912D02309721F00084F185AE
:10211000E02D0994089585B7806885BF85B78068EC
:1021200085BF0895089508950C94921008950C9415
:1021300096100E948B100E9493100C94941081E0D2
:1021400008950C949F100E94231D0E9469050E940F
:10215000CB1D0E94A10B0E94370DEEEEF2E08081B4
:10216000806880838091EE029091EF020E946E1B46
:102170000C949710FF920F931F93CF93DF93CDB7DB
:10218000DEB72A970FB6F894DEBF0FBECDBF0E9410
:1021900092050E94A110811133C08FEF89838A8339
:1021A0001B820E942C1D8160782F9D838C83498126
:1021B0005A816B818D810E9438110E94D40B0E943C
:1021C0009F0D0E942A200E942B1090912E028917A9
:1021D00009F442C00E942B1080932E022A960FB65B
:1021E000F894DEBF0FBECDBFDF91CF911F910F914D
:1021F000FF900C94F1028F5F000F873089F4CDCFF0
:1022000080E00E946205182FF0902F02F81629F244
:1022100080919B0281FD0E94680580E001E0F1262B
:102220009F2D902341F38E831F82102381E009F4B8
:1022300080E088870E942C1D8160782F9A8789878B
:102240004E815F8168858A850E94381180912F02B6
:10225000082700932F02B1CF2A960FB6F894DEBF5D
:102260000FBECDBFDF91CF911F910F91FF900895C9
:10227000CF93DF93CDB7DEB72B970FB6F894DEBFC1
:102280000FBECDBF4F83588769877A878B871E82A1
:102290001D8285E0FE013796DE01119601900D92B8
:1022A0008A95E1F749815A816B817C818D819E817C
:1022B0002B960FB6F894DEBF0FBECDBFDF91CF9146
:1022C0000C948B17FC01808191810C94411ACF935F
:1022D000C82F882309F48BC08238C1F40E942B10C8
:1022E00081FD85C089E30E946F1A0E94E01A2FEFDA
:1022F00081EE94E0215080409040E1F700C0000062
:1023000089E30E94761ACF910C94E01A8338A1F4E5
:102310000E942B1080FD6BC083E50E946F1A0E9403
:10232000E01A2FEF81EE94E0215080409040E1F7D9
:1023300000C0000083E5E5CF8438A1F40E942B1093
:1023400082FD55C087E40E946F1A0E94E01A2FEFA9
:1023500081EE94E0215080409040E1F700C0000001
:1023600087E4CFCF8CEF8C0F813A90F46C2F809163
:102370001601909117010E94051C882329F08C2FCB
:102380000E94761A0E94E01A8C2F0E946F1ABBCF0F
:1023900080E28C0F883048F4C77081E001C0880F5C
:1023A000CA95EAF70E94971AAECFEBE5EC0FE3303F
:1023B00040F4F0E0E751FE4F808190E0CF910C9423
:1023C0005F10E8E5EC0FE73150F4F0E0EE0FFF1F8F
:1023D000E554FE4F80819181CF910C947510C03FE0
:1023E00030F08C2F0E945C1FCF910C941F20CF9156
:1023F0000895882309F452C0823871F40E942B108A
:1024000081FF4CC089E30E946F1A0E94E01A89E3A1
:102410000E94761A0C94E01A833859F40E942B100B
:1024200080FF3CC083E50E946F1A0E94E01A83E59A
:10243000EFCF843859F40E942B1082FF2FC087E41D
:102440000E946F1A0E94E01A87E4E2CF9CEF980F77
:10245000913AF0F290E2980F983050F4877091E042
:1024600001C0990F8A95EAF7892F0E949D1AD2CF51
:102470009BE5980F933020F490E080E00C945F107F
:1024800098E5980F973120F490E080E00C94751057
:10249000803F20F00E94BF1F0C941F200895CF930F
:1024A000C82F0E946711C93349F42FEF87EE93E0DC
:1024B000215080409040E1F700C000008C2FCF9168
:1024C0000C94F911882321F00E94971A0C94E01AB9
:1024D0000895882321F00E949D1A0C94E01A089513
:1024E000BF92CF92DF92EF92FF920F931F93CF9301
:1024F000DF936C01D62FC72FFC01058102950F7069
:10250000128111110E94B41A0E948D1AE82E88239C
:1025100091F01123D1F08C2F807F803421F080E264
:102520008D0F883090F082E00E942B1B0E948D1A44
:1025300091E0E82EE926BC2EB2949FE0B922EB2D63
:10254000F0E0ED5FF64D0C94D327E12CF4CF0C2F87
:102550000F70C07F11F00295007F1123A9F00023B6
:1025600059F080E28D0F883010F0D11109C0802F12
:102570000E94971A0E94E01A8D2F0E94671114C0C2
:10258000802F0E94A71AF6CF8D2F0E94F9110023E9
:1025900059F080E28D0F883010F0D1112CC0802FBF
:1025A0000E949D1A0E94E01A2B2D2850330B2430D4
:1025B000310520F40E942B100E94F102EE2009F454
:1025C000D5C10E94891A80FDD1C1F60112820E94F4
:1025D000831A0E940F19C6010E94D7140E94831A01
:1025E000DF91CF911F910F91FF90EF90DF90CF90EF
:1025F000BF900C943019802F0E94AD1AD3CFFC2FBE
:10260000FF70FF2EC07FC03219F0F29480EFF822E5
:10261000DD2369F0D13049F1112391F1002351F10B
:10262000F601858180FFA8CF8F70858323C0112399
:1026300081F0011106C00E94C71A8F290E94621200
:10264000B3CF0130C1F70E94C71A8F290E94CD1A5B
:10265000ABCF011106C00E94D61A8F2D0E946912BD
:10266000A3CF013009F4A0CFF6CF112329F0063013
:1026700008F09ACF8F2DE2CF053008F095CFEDCF3F
:10268000002359F3D93349F4FFEF27EE33E0F1503B
:1026900020403040E1F700C000008D2F0E94F9116A
:1026A00083CF8C2F86958695837069F0813009F0F1
:1026B0007BCF8D2F9C2F9370111102C090E080E092
:1026C0000E94751071CF8D2F9C2F9370111102C035
:1026D00090E080E00E945F1067CF112309F1D53FA1
:1026E00099F0D63FB9F0D43F49F48091E802909137
:1026F000E90281609093E9028093E8028D2F0E94A5
:102700005C1F0E941F2050CF8091E8029091E90247
:102710008260F0CF8091E8029091E9028460EACF74
:10272000D53F89F0D63FA9F0D43F49F48091E80223
:102730009091E9028E7F9093E9028093E8028D2FB9
:102740000E94BF1FDECF8091E8029091E9028D7F49
:10275000F2CF8091E8029091E9028B7FECCF8C2F31
:10276000837009F041C011111FCF4D2F429546953E
:102770004770440F440F0D2F0F7010E030E020E041
:10278000042E04C0000F111F221F331F0A94D2F71A
:1027900060E070E0CB01D4FF0FC06FE070E080E03C
:1027A00090E004C0660F771F881F991F4A95D2F7E3
:1027B0006095709580959095C695C695C370602B71
:1027C000712B822B932BC23049F058F4C13019F091
:1027D0000E94C118E9CE0E94AF18E6CE0E94D3181D
:1027E000E3CE0E94AD18E0CE8695112311F08C2F18
:1027F0008170882309F4D8CE4D2F429546954770B5
:10280000440F440F0D2F0F7010E030E020E0042E35
:1028100004C0000F111F221F331F0A94D2F760E07B
:1028200070E0CB01D4FF0FC06FE070E080E090E07B
:1028300004C0660F771F881F991F4A95D2F76095CD
:10284000709580959095C695C695C370602B712B39
:10285000822B932BC23049F058F4C13019F00E94FA
:102860008619A2CE0E9474199FCE0E9498199CCE00
:102870000E94E91899CECF70112329F08C2F0E9465
:102880000F198D2FDBCE8D2F0E9469128C2F0E9485
:1028900030198ACED23F89F160F4D03FC9F0D13FE0
:1028A00029F1112309F442C0011166CE8C2F8F71DA
:1028B00021C0D33F39F1D43FA1F7112369F1CF7182
:1028C0008C2F0E940F1963E08C2F0E94161B6CCE78
:1028D000112341F0053008F067CE8C2F8F710E94D4
:1028E000531962CE063008F05FCEF7CF8C2F8F7170
:1028F000112369F20E940F1957CE8C2F8F7111236B
:10290000C9F3C5CF112329F08C2F8F710E94FA18BB
:102910004BCE0E94F51848CE81E00E942B1B02305E
:1029200008F442CE82E00E942B1B3ECE002359F0D9
:10293000D93309F0B2CE8FEF97EEE3E081509040AB
:10294000E040E1F7A8CE8C2F8F71A1CF4C2F4F70B4
:102950006D2FC6010E944B030E94251825CE4C2FD7
:102960004F706D2FC6010E944E031ECEDF91CF9196
:102970001F910F91FF90EF90DF90CF90BF9008953F
:102980000F931F93CF93DF93EC01688179818A8144
:102990000E944B1A8C010E94AA190E94AC18B8011F
:1029A000CE01DF91CF911F910F910C947012CF93B4
:1029B000DF93EC018B819C81892B29F0888199819F
:1029C00089238F3F59F4DF91CF910895CE010E9462
:1029D000C014CE01DF91CF910C94D502CE010E949C
:1029E00009038111F3CF0E948D1A882361F38A8134
:1029F000882349F382E0DF91CF910C942B1B0E9436
:102A0000B41A0E94C41A0E94E01A0E94A1200E94D7
:102A10001F2090E080E00E945F1090E080E00C9426
:102A200075100E947D1A0C94FF140E94A41A0C9435
:102A30001115E92FE295EF70E250EE3070F4F0E0FE
:102A4000ED5EF64D0C94D327803F19F020F4883EBC
:102A500020F481E00895843FE1F380E00895883E0A
:102A6000C0F3813FD1F7F5CF93FB882780F9089514
:102A70000E94411A0C941915CF93DF9300D000D017
:102A80000F92CDB7DEB70F900F900F900F900F9071
:102A9000DF91CF910895CF93DF9300D000D000D085
:102AA000CDB7DEB726960FB6F894DEBF0FBECDBF0A
:102AB000DF91CF9108951F93CF93DF93C09131029F
:102AC00016E0809132028C1304C0DF91CF911F91E8
:102AD0000895D0E01C9FF0011D9FF00D1124ED5CC6
:102AE000FD4F4081518162817381848195810E9473
:102AF0004B152196C770E5CF409163025091640257
:102B000060916502709166028091670290916802FF
:102B10000C944B151F93CF93DF9380916802807FB5
:102B2000A9F480916502882389F080913102C091D7
:102B300032026091630270916402A0916602B091CA
:102B40006702D62FD72316E0C81304C0DF91CF91B8
:102B50001F91089590E0109711F0DF3F19F401964E
:102B60008770F2CF189F9001199F300D1124F90141
:102B7000ED5CFD4F41814713F2CF40814613EFCF0B
:102B800042814111ECCF438154814A1B5B0B483C8D
:102B9000510528F7809168028F70806180936802E8
:102BA000F901E85CFD4F80818F708061808383E64E
:102BB00092E00E94D714DF91CF911F910C945B1586
:102BC000AF92BF92CF92DF92EF92FF920F931F933B
:102BD000CF93DF93CDB7DEB761970FB6F894DEBF22
:102BE0000FBECDBF8C0185E0F801DE011D9601907E
:102BF0000D928A95E1F7F80140815181E28083E6E8
:102C0000C82E82E0D82E609166027091670261152D
:102C1000710509F461C19091630220916402892FCA
:102C200082238F3F09F458C1A380B480F0906502DD
:102C3000F501E61BF70BFF2009F4FCC08091680248
:102C4000382F307FE83CF10508F0B2C0311179C06F
:102C5000FE2C251323C0941321C0E1101FC08F70D8
:102C60008061809368020E947C15C6010E94D7147F
:102C700080916802F80185838F2D61960FB6F894D4
:102C8000DEBF0FBECDBFDF91CF911F910F91FF909F
:102C9000EF90DF90CF90BF90AF900895AB2829F0D0
:102CA000842F85238F3F09F033C180E0F82FF17026
:102CB000DF2E80FF3CC0809131022091320236E04D
:102CC000821315C04D875E878D859E850E94411AAF
:102CD000292F22952F702230F0F0243018F59F70A4
:102CE000F1F0F8019581907FD1F4D12C1EC090E0D5
:102CF000389FF001399FF00D1124ED5CFD4F61818B
:102D0000651306C06081641303C062816E110FC039
:102D100001968770D5CF9F7011F0882331F3805EC4
:102D2000883018F3C8010E94D714FD2CA5CFEE20DF
:102D300009F4A2CF80916802816080936802F12C2F
:102D40009BCF251306C0941304C0F801EE2009F4AC
:102D50008DC04D875E878D859E850E94381588239E
:102D600019F1EE2009F180916802803270F0209113
:102D700063023091640238872F831986BB86AA8646
:102D80008C87CE0107960E94D71486E0F801A3E64F
:102D9000B2E001900D928A95E1F70E948A150E9497
:102DA0007C15FF24F39468CFC8010E94D714F9CF93
:102DB000311113C07A2DB98AA88A6E2D89890E9493
:102DC0003C1583E692E00E94D71486E0F60111924A
:102DD0008A95E9F70E947C15B2CF25130FC0941392
:102DE0000DC0E1100BC0F8018583C8010E94D71403
:102DF00086E0F60111928A95E9F73ECF4D875E870E
:102E00008D859E850E943815882371F2EE2061F22F
:102E100080916802803208F4B8CF2091630230912B
:102E200064023A8329831B82BD82AC828E83CE01E9
:102E30000196A9CFE83CF10508F041C0FE2CEE2038
:102E400009F4B2CF25132AC0941328C080916802D8
:102E500080FD1BC0982F907FC1F0F8018583903FC3
:102E600031F0982F907F905F8F70892B8583C801F8
:102E70000E94D71486E0F801A3E6B2E001900D921B
:102E80008A95E1F70E947C15F7CE86E0F801A3E66B
:102E9000B2E001900D928A95E1F7EECE4D875E8704
:102EA0008D859E850E94381581116FCF80916802B3
:102EB000816080936802C8010E94D714DDCE7A2D0C
:102EC000B98AA88A6E2D89890E943C1586E0F60190
:102ED00011928A95E9F7D6CFEE2009F465CF4D8798
:102EE0005E878D859E850E943815F82E882309F40B
:102EF0005BCF86E0F801A3E6B2E001900D928A95DF
:102F0000E1F783E692E00E9462110E948A15BACF2F
:102F100081E08E25CBCE1F93CF93DF93CDB7DEB765
:102F20002C970FB6F894DEBF0FBECDBF4F835887E6
:102F300069877A878B879C87CE0107960E94E01568
:102F4000882369F08A859B85892B39F04F815885C4
:102F5000842F85238F3F09F071C016E05FC086E0A3
:102F6000FE013796DE01119601900D928A95E1F7E8
:102F70008A859B85892B89F388859F8189238F3F4B
:102F800061F32091320230E0C901019687709927E0
:102F9000409131024817190671F40E9415151092DC
:102FA00032021092310286E0E3E6F2E0DF011D9288
:102FB0008A95E9F7D2CF96E0929FD001939FB00D0A
:102FC0001124AD5CBD4FFE01319601900D929A9592
:102FD000E1F7809332020E945B15BFCF819FC00151
:102FE00011248D5C9D4F0E94E0158823E9F0E0914B
:102FF00031021E9FF0011124ED5CFD4F4081518193
:1030000062817381848195810E944B158091310288
:1030100090E0019687709927809331028091310268
:10302000909132028913DACF2C960FB6F894DEBF56
:103030000FBECDBFDF91CF911F91089569857A852D
:103040008B859C850E944B1588CFEF92FF920F9342
:103050001F93CF93DF938C01892B81F0F12CEE2409
:10306000E394E8012196F8018491843770F4843068
:1030700008F05FC08130B1F08230A1F1DF91CF91D3
:103080001F910F91FF90EF900895853709F44CC080
:1030900008F43DC09CE7980F903780F78F770E9427
:1030A000F91149C00E5F1F4FFE01849190E2980F05
:1030B000983060F48770FE2D01C0FF0F8A95EAF703
:1030C0008F2F0E94B71A0E94E01A02C00E94671157
:1030D0008F2D815030F2EFE9FFE03197F1F700C01A
:1030E0000000F7CF0E5F1F4FFE01849190E2980F12
:1030F000983050F48770FE2D01C0FF0F8A95EAF7D3
:103100008F2F0E94BD1ADFCF0E94F911E1CF0E5F11
:103110001F4FFE01C491C150D8F28FE99FE0019783
:10312000F1F700C00000F7CF0E5F1F4FFE01F490D3
:10313000CFCF0E9467118E01CBCF08950C949D18BC
:103140000E949E18609372027093730280937402BF
:10315000909375020C94FF1408950C94A0180F938B
:103160001F930091720210917302209174023091AA
:103170007502602B712B822B932B1F910F910C9456
:10318000A0180F931F930091720210917302209167
:1031900074023091750260237123822393231F915F
:1031A0000F910C94A0180F931F930091720210912D
:1031B0007302209174023091750260277127822773
:1031C00093271F910F910C94A0180C949D180C94A8
:1031D000E5180E94E71860936E0270936F02809367
:1031E0007002909371020C94FF1460E070E0CB01C8
:1031F0000C94E9180F931F9341E050E060E070E0F9
:103200008A019B0104C0000F111F221F331F8A95E2
:10321000D2F7C901B8011F910F910C94E9180F93CF
:103220001F9341E050E060E070E004C0440F551F80
:10323000661F771F8A95D2F780916E0290916F0278
:10324000A0917002B09171028A019B01082B192B89
:103250002A2B3B2BC901B8011F910F910C94E9183F
:103260000F931F9341E050E060E070E004C0440F12
:10327000551F661F771F8A95D2F7CB01BA0160955B
:1032800070958095909500916E0210916F0220913B
:1032900070023091710260237123822393231F9166
:1032A0000F910C94E9180F931F9341E050E060E0F8
:1032B00070E004C0440F551F661F771F8A95D2F730
:1032C00080916E0290916F02A0917002B091710294
:1032D0008A019B01082719272A273B27C901B80122
:1032E0001F910F910C94E9180F931F9300916E0298
:1032F00010916F022091700230917102602B712B3E
:10330000822B932B1F910F910C94E9180F931F930D
:1033100000916E0210916F02209170023091710243
:1033200060237123822393231F910F910C94E9183A
:103330000F931F9300916E0210916F022091700203
:103340003091710260277127822793271F910F9177
:103350000C94E918089527E0929F800D1124982F6E
:10336000977041E001C0440F9A95EAF786958695DB
:10337000869595E0899FF0011124E759FD4F90E073
:1033800080E070E05191DF0111979B01082E02C08F
:10339000369527950A94E2F7217021952527242355
:1033A00025272C9301968530910561F7089527E034
:1033B000929F800D1124982F9770869586958695FB
:1033C00025E0829FF0011124E759FD4F50E040E0D5
:1033D00080E0219130E0092E02C0369527950A94AD
:1033E000E2F721703327042E01C0220F0A94EAF776
:1033F000822B4F5F5F4F4530510559F70895BF92BB
:10340000CF92DF92EF92FF920F931F93CF93DF93B0
:103410008C01C0906E02D0906F02E0907002F0902C
:1034200071028091720290917302A0917402B09126
:103430007502C82AD92AEA2AFB2ACFE1D0E0BC2E9D
:10344000D701C6010C2E04C0B695A7959795879510
:103450000A94D2F780FD0EC0219788F7B12C8B2DEE
:10346000DF91CF911F910F91FF90EF90DF90CF9060
:10347000BF900895B8018C2F0E946D03019761F3EE
:10348000EECFCF93DF93EC010E94FF19BE01DF91D5
:10349000CF910C946D031F93CF93DF93EB01909129
:1034A0003002992331F0CB01DF91CF911F910C9421
:1034B000411A882379F0CB010E94FF19182F682F39
:1034C000CE010E94AB19BE01812FDF91CF911F91D8
:1034D0000C946D03CB010E94D719182FF4CF682FDD
:1034E00080911601909117010C94851C682F809192
:1034F0001601909117010C94901C809116019091E7
:1035000017010C949B1C8091760285958595859575
:103510000895809176028770089590917602977051
:1035200081E009F480E0089580919A0208959091D5
:103530009A02892B80939A020895809590919A021D
:10354000982390939A02089510929A020895909168
:103550009902892B80939902089580959091990200
:10356000982390939902089510929902089590914A
:103570009802892B809398020895809590919802E3
:10358000982390939802089510929802089580913C
:103590007702089508950C94CA1A909177029817AB
:1035A00021F0809377020C94CB1A089580917702D2
:1035B000882329F01092770280E00C94CB1A0895AA
:1035C000E0911601F091170180919A028083E091B9
:1035D0001601F0911701808190919902892B8083C7
:1035E000E0911601F0911701808190919802892B4A
:1035F000808390917702992381F0E0911601F091F8
:1036000017018081892B8083809116019091170189
:103610000E94F11B81110E94D61A8091160190918F
:1036200017010C94371008950C94131B98E0899F90
:1036300090011124622B609376020E940F198091F1
:1036400076028595859585950C94141B10927602CB
:1036500080E00C94141B90917602809589238093CE
:103660007602282F277071F4282F082E000C330BB8
:103670009217130639F08595859585950E94301926
:103680000C94261B089590E080E00E94502821E0D1
:103690008C3E9E4F09F020E0822F089582E090E05A
:1036A0000C944228682F82E090E00C94562883E026
:1036B00090E00C944228682F83E090E00C94562808
:1036C000CF9384E090E00E944228C82F81E290E0EE
:1036D0000E944228982F8C2FCF910895CF93C92F05
:1036E000682F84E090E00E9456286C2F81E290E0E1
:1036F000CF910C945628AB01BC018FE090E00C9464
:103700006828AB01BC0183E190E00C94682860E07C
:1037100070E0CB010C94811B60E070E0CB010E9453
:103720007B1B0C94871B6CEE7EEF90E080E00E9488
:10373000742860E082E090E00E94562860E083E018
:1037400090E00E945628109272021092730210921A
:1037500074021092750260E084E090E00E945628A6
:1037600060E081E290E00E94562860E085E090E011
:103770000E94562860E086E090E00E9456286FEF95
:1037800087E090E00E94562840E050E0BA0188E0CF
:1037900090E00E94682860E08DE090E00E9456284A
:1037A00040E050E0BA0188E190E00E94682860E0C3
:1037B00087E190E00E94562840E050E0BA018CE199
:1037C00090E00E94682860E080E290E00E94562825
:1037D0000C948C1B0C94931B682F8EE090E00C943F
:1037E0005628FC01329680914301882321F0809174
:1037F000EE029EE187FF96E080E0915008F4089584
:1038000021912223D1F38F5FF8CF662301F120911C
:1038100043012223F1F02091EE0227FF1AC0462F28
:103820004695469546954E3190F4677021E030E01C
:1038300002C0220F331F6A95E2F7840F911DFC012D
:10384000828190E02823392381E0232B69F480E0F2
:103850000895FC01329608962191261721F0E81769
:10386000F907D1F7F4CF81E008959C01FC0132966D
:103870009FEF80E04191461751F09F3F19F44111AD
:1038800001C0982F8F5F8630A9F79F3F09F40895F4
:10389000290F311D97FD3A95F90162830895FC01C6
:1038A000329608962191261303C0DF0111971C92CE
:1038B000E817F907B9F70895E62FE695E695E69536
:1038C000EE3168F4E80FF92FF11D677021E030E068
:1038D00001C0220F6A95EAF78281822B82830895C4
:1038E000E62FE695E695E695EE3170F4E80FF92FB0
:1038F000F11D677021E030E001C0220F6A95EAF700
:103900002095828128232283089520914301222338
:1039100029F02091EE0227FD0C945C1C0C94351CC0
:1039200020914301222329F02091EE0227FD0C94DF
:10393000701C0C944F1CFC0132968091430188232B
:1039400051F08091EE0287FF06C08EE1DF011D92EB
:103950008A95E9F7089586E0F9CF089508950C94C3
:10396000AE1C0E94AF1C8091F402843049F1109289
:103970009C0288E190E020E40FB6F894A89580932B
:1039800060000FBE2093600080E00E94F1020E9460
:10399000AF1C83B7817F846083BF83B7816083BF9F
:1039A0007894889583B78E7F83BF0FB6F894A895D7
:1039B00080916000886180936000109260000FBE6B
:1039C000089508950E94AD1C0E9492050E94E11C7A
:1039D00080E00E94620591E0811101C090E0892F92
:1039E000089508950C94F11C0E9415150E942B1047
:1039F0000E94F1020C94F21C1F921FB61F92112418
:103A00008F939F93AF93BF9380919C02811113C0BA
:103A10008091EA029091EB02A091EC02B091ED024C
:103A20004196A11DB11D8093EA029093EB02A093F1
:103A3000EC02B093ED02BF91AF919F918F911F90D7
:103A40001FBE1F90189582E084BD93E095BD9AEF4C
:103A500097BD80936E0008952FB7F8948091EA0285
:103A60009091EB02A091EC02B091ED022FBF08956E
:103A70009C014FB7F8948091EA029091EB02A091DB
:103A8000EC02B091ED024FBF821B930B0895789426
:103A90001F921FB61F9211248F939F93AF93BF93D2
:103AA0008091EA029091EB02A091EC02B091ED02BC
:103AB0000196A11DB11D8093EA029093EB02A093A1
:103AC000EC02B093ED02BF91AF919F918F911F9047
:103AD0001FBE1F90189581E08093E00080E28093E4
:103AE000D8001092C9008FE19EE40197F1F700C061
:103AF000000087E090EBDC018093FD029093FE02D2
:103B0000A093FF02B093000388E19CE00FB6F89405
:103B1000A895809360000FBE90936000FFCFEF9256
:103B2000FF920F931F93CF93DF93082F80E00E94A3
:103B30006205D0E0C0E0E82EF12C10E0C7010C2EA9
:103B400002C0959587950A94E2F780FD0CC02196F6
:103B5000C730D10599F780E0DF91CF911F910F9188
:103B6000FF90EF9008956C2F70E080E00E944F036B
:103B70000817190761F781E0EFCFCF93C82F8CE2C8
:103B80000E948F1D882321F08C2FCF910C948F1DC4
:103B900080E0CF910895CF930E94431B811102C012
:103BA0000E94EA1BC5E608C00E9492058FE39CE9CB
:103BB0000197F1F700C00000C150B1F789E20E94FF
:103BC000BD1D811100C18AE20E94BD1D81110E94AC
:103BD000EA1B85E00E94BD1D81110E946B1D0E94A1
:103BE0004E1B80939B0287E00E94BD1D882371F0CD
:103BF0008BE10E94BD1D882309F4C2C090919B02F5
:103C0000892F8D7F91FF826080939B0280919B0220
:103C10000E94521B0E94601B9093EF028093EE0261
:103C200080EE0E94BD1D882341F09091EE02892F05
:103C30008E7F90FF81608093EE0289E30E94BD1D1C
:103C4000882341F09091EE02892F8D7F91FF826051
:103C50008093EE0282EE0E94BD1D882341F0909178
:103C6000EE02892F8B7F92FF84608093EE0286EEB6
:103C70000E94BD1D882341F09091EE02892F877F1D
:103C800093FF88608093EE0283EE0E94BD1D88231F
:103C900041F09091EE02892F8F7E94FF8061809396
:103CA000EE0285E30E94BD1D882341F09091EE0253
:103CB000892F8F7D95FF80628093EE0281E30E94C1
:103CC000BD1D882341F09091EE02892F8F7B96FFD6
:103CD00080648093EE0281E10E94BD1D882341F043
:103CE0009091EE02892F97FB87F980588093EE021E
:103CF0008091EE029091EF020E946E1B87E20E947B
:103D0000BD1DC82F8EE10E94BD1D8111C2608FE1D3
:103D10000E94BD1D8111C46080E20E94BD1D811101
:103D2000C86081E20E94BD1D8111C06182E20E94D3
:103D3000BD1D8111C06283E20E94BD1D8111C0645E
:103D400084E20E94BD1D8823C1F1C0688C2F0E94AF
:103D50005B1B6C2F70E090E080E00E94AD188FE05C
:103D60000E94BD1D882319F081E00E94EC1B85E1B3
:103D70000E94BD1D882339F180E0CF910C94EC1B8B
:103D80008EE00E94BD1D882339F090919B02892FFF
:103D90008B7F92FF846038CF80E10E94BD1D90919F
:103DA0009B02882329F0892F877F93FF88602CCF7F
:103DB000892F8E7F90FF816027CFC111C7CF0E94CE
:103DC000571B682FC7CFCF9108958091380190E09D
:103DD000880F991FFC01E05DFE4F2081805E9E4FA1
:103DE000FC0180819091A502191614F42093A5027C
:103DF0009091A50297FF04C0922F91959093A502F0
:103E00009091A602191614F42093A6029091A6028E
:103E100097FF03C021952093A6029091A80219163E
:103E200014F48093A8029091A80297FF04C0982FE1
:103E300091959093A8029091A702191614F480937B
:103E4000A7029091A70297FF03C081958093A702D4
:103E50003091A5023323A1F02091A602222381F004
:103E600045EB3403C00111249923F1F09093A5028E
:103E700045EB2403900111243323D1F03093A602A3
:103E80004091A802442379F03091A702332359F0DE
:103E900025EB4203A00111245093A80232039001A4
:103EA00011243093A702089581E08093A502E0CF0A
:103EB00081E08093A602E4CF40913801242F30E0C6
:103EC000220F331FF901E05DFE4F9081803F21F406
:103ED00091959093A6020895813FD9F3823F21F4F2
:103EE00091959093A5020895833FD9F3205E3E4FAC
:103EF000F9019081893F19F49093A70208958A3FB0
:103F000011F49195F9CF8B3F21F491959093A802EC
:103F100008958C3FD9F3843F31F48091A4028160ED
:103F20008093A4020895853F21F48091A4028260C9
:103F3000F7CF863F21F48091A4028460F1CF873FC0
:103F400021F48091A4028860EBCF883F21F4809116
:103F5000A4028061E5CF8D3F49F481E08093380170
:103F600080913801481751F00C94E51E8E3F11F4F2
:103F700082E0F4CF8F3F11F483E0F0CF0895803FCB
:103F800039F48091A60287FF29C01092A6020895F5
:103F9000813F29F48091A6021816BCF30895823F50
:103FA00039F48091A50287FF19C01092A5020895E7
:103FB000833F29F48091A5021816BCF30895893F28
:103FC00039F48091A70218164CF41092A7020895B4
:103FD0008A3F29F48091A70287FDF7CF08958B3F90
:103FE00039F48091A80287FFF9CF1092A8020895B2
:103FF0008C3F29F48091A8021816BCF30895843FE1
:1040000031F48091A4028E7F8093A402E7CF853F94
:1040100021F48091A4028D7FF7CF863F21F4809117
:10402000A4028B7FF1CF873F21F48091A402877F88
:10403000EBCF883F99F68091A4028F7EE5CF83EA8B
:1040400092E00E9451100E942C1D9093A202809336
:10405000A1020895CF93DF9300D000D000D0CDB758
:10406000DEB786E0E3EAF2E0DE01119601900D9200
:104070008A95E1F78091A5029091A602892B49F1DA
:1040800080919F029091A0020E94381DE09138011A
:10409000F0E0EE0FFF1FE85DFE4F20813181281711
:1040A0003907B8F41092A8021092A7020E941F20AC
:1040B0008091A1029091A2029093A00280939F020E
:1040C00086E0FE013196A3EAB2E001900D928A9556
:1040D000E1F78091A8029091A702892B49F1809184
:1040E0009D0290919E020E94381DE0913801F0E0FF
:1040F000EE0FFF1FE85EFE4F208131812817390740
:10410000B8F41092A5021092A6020E941F2080917E
:10411000A1029091A20290939E0280939D0286E05C
:10412000FE013196A3EAB2E001900D928A95E1F783
:1041300026960FB6F894DEBF0FBECDBFDF91CF91AC
:10414000089586E0E3EAF2E0DF011D928A95E9F73F
:1041500008958091C9020895CF93DF9300D00F9204
:10416000CDB7DEB79091F402943019F589837B8343
:104170006A8382E08093E9008FEF9091E80081509C
:1041800095FD06C095ED9A95F1F700008111F5CFE8
:104190008091E80085FF0DC050E040E063E070E0F2
:1041A000CE0101960E9400238091E8008E778093D3
:1041B000E8000F900F900F90DF91CF910895CF936B
:1041C000DF93EC010E94E322823011F0843031F45D
:1041D000BE0184E0DF91CF910C94AC20DF91CF91B0
:1041E0000895BC0183E00C94AC20CF93DF93EC01E5
:1041F0000E94E322823011F08430F9F482E080934F
:10420000E9008FEF9091E800815095FD06C095ED93
:104210009A95F1F700008111F5CF8091E80085FFB4
:104220000CC050E040E066E070E0CE010E94002348
:104230008091E8008E778093E800DF91CF91089518
:10424000CF93DF93EC010E94E322823011F084309F
:10425000B9F5809143018823B1F18091EE0287FF87
:1042600032C060E282E08093E9008FEF9091E80035
:10427000815095FD06C095ED9A95F1F700008111EA
:10428000F5CF8091E80085FF1BC08091430170E06D
:1042900050E040E0811104C050E040E068E070E090
:1042A000CE010E9400238091E8008E778093E80081
:1042B00080E2FE01A9EAB2E001900D928A95E1F751
:1042C000DF91CF91089568E081E0CDCF8091F30236
:1042D000811109C00E9490240E94ED248091E20087
:1042E00084608093E20008951092F3020895089587
:1042F00008950C94F41C42E061EC81E00E940C24CF
:1043000042E261EC82E00C940C248091F60283304E
:1043100009F45FC030F48130C1F1823009F49BC0F0
:1043200008958A3009F487C08B3009F46DC0893054
:1043300009F04EC08091F502813209F049C08091A8
:10434000F9029091FA02029708F042C08091E800C9
:10435000877F8093E8008091E80082FF35C09091CC
:10436000F3008091F200029729F48091F1008B7F95
:10437000813021F48091F1008093C9028091E8009E
:104380008B778093E8000C9440248091F502813A69
:10439000F9F48091E800877F8093E8008091F9022A
:1043A0009091FA02892B61F460E289EA92E070E070
:1043B0000E944F238091E8008B778093E800089556
:1043C00060E090E080E0F3CF8091F4028111C3CFF0
:1043D00008958091F502813AD9F78091F902909180
:1043E000FA02892BA9F78091E800877F8093E80083
:1043F0008091E80080FFFCCF809143018093F10021
:104400008091E8008E77BDCF8091F502813201F76F
:104410008091F9029091FA02892BD1F68091E800FF
:10442000877F8093E8000E9440248091F702809368
:1044300043010C9415158091F502813249F6809163
:10444000E800877F8093E8000E9440248091F80272
:104450008093CA0208958091F502813A09F0B8CF9D
:104460008091E800877F8093E8008091E80080FFDA
:10447000FCCF8091CA02C2CF84B7877F84BF0FB6BA
:10448000F894A895809160008861809360001092F4
:1044900060000FBE80E890E00FB6F8948093610052
:1044A000909361000FBE0E9499100E9490240E9478
:1044B000ED248091E20084608093E20078940E9471
:1044C00076270E94A31089E391E00E942610809134
:1044D000F402853019F00E94BA10F9CF0E94B11C85
:1044E0008091F202882399F30E94E21C882379F3D9
:1044F0000E94EA22ECCF0C947D22292F332723300F
:10450000310519F168F42130310509F44AC022302F
:10451000310509F44BC090E080E030E020E028C095
:104520002132310579F122323105A9F780E490E09A
:104530002DE234E061157105D9F08CEB90E021E7B4
:1045400033E061307105A1F0E6CF99278130910504
:1045500099F0009741F08230910589F00397D9F6E0
:10456000E2EEF2E002C0E0E2F3E0849190E09F012D
:10457000FA01318320830895E6E0F3E0F6CFE8EE18
:10458000F2E0F3CF89E090E026E333E061157105B6
:1045900079F389E090E02FE433E06130710541F375
:1045A000BACF82E190E02FE533E0E2CF8BE390E0F9
:1045B00024E233E0DDCF8091F402843011F482E014
:1045C000089581E008958091CB02811102C00C947E
:1045D000DB22089580E189BD82E189BD09B400FE36
:1045E000FDCF8091D8008F7D8093D8008091E0002E
:1045F00082608093E0008091E00081FDFCCF08950F
:10460000AF92BF92CF92DF92FF920F931F93CF93FF
:10461000DF936C01EB018A010E945F24F82E811167
:1046200023C00115110539F0F80180819181C81B63
:10463000D90BC80ED91EB12CA12C2097A9F08091BE
:10464000E80085FD22C08091E8008E778093E80025
:1046500001151105A1F0F80180819181A80EB91E04
:10466000B182A08285E0F82E8F2DDF91CF911F912E
:104670000F91FF90DF90CF90BF90AF9008950E9470
:104680005F248823D1F2F82EEFCFF60181916F01DC
:104690008093F1002197FFEFAF1ABF0ACECFFC0144
:1046A0008091FB029091FC0286179707A0F061159C
:1046B000710529F49091E8009E779093E80090E0CE
:1046C0006115710551F4911108C08091E80082FFD5
:1046D00034C080E00895BC01F2CF8091F4028823B9
:1046E000C1F18530C1F18091E80083FD30C0809137
:1046F000E80082FDEACF8091E80080FFE1CF809161
:10470000F3002091F200382F6115710519F028305F
:10471000310558F091E02830310509F090E0209102
:10472000E8002E772093E800CBCF81918093F100B1
:10473000615071092F5F3F4FE7CF8091F4028823CA
:1047400041F0853041F08091E80083FFBECF81E0E9
:10475000089582E0089583E00895FC018091FB02B2
:104760009091FC0286179707A0F06115710529F456
:104770008091E8008E778093E80090E061157105E4
:1047800051F4911108C08091E80082FF35C080E0AB
:104790000895BC01F2CF8091F4028823C9F18530DD
:1047A000C9F18091E80083FD31C08091E80082FD6D
:1047B000EACF8091E80080FFE1CF8091F300209163
:1047C000F200382F6115710519F02830310558F0C5
:1047D00091E02830310509F090E08091E8008E7773
:1047E0008093E800CBCF84918093F10031966150A3
:1047F00071092F5F3F4FE6CF8091F402882341F08B
:10480000853041F08091E80083FFBDCF81E00895BD
:1048100082E0089583E00895982F973028F08F70F4
:104820008093E90081E008959093E900242F762F8A
:1048300050E0981731F07091EC002091ED0050910C
:10484000F00021FD02C09F5FE8CF3091EB003E7F7A
:104850003093EB003091ED003D7F3093ED003091CF
:10486000EB0031603093EB007093EC002093ED008F
:104870005093F0002091EE0027FDE5CF80E00895F1
:104880008091F50287FF13C08091E80082FF06C087
:104890008091E8008B778093E80004C08091F40257
:1048A0008111F2CF08958091F4028823D9F3809189
:1048B000E80080FFF8CF8091E8008E77ECCF209160
:1048C000E4003091E50095E6A9012091EC00822FEB
:1048D000817020FF06C08091E80080FF06C080E064
:1048E00008952091E80022FD1AC08091F4028823E7
:1048F00089F0853089F08091EB0085FD0FC0209113
:10490000E4003091E50042175307F9F29150E1F6C7
:1049100084E0089582E0089583E0089581E0089599
:104920000E94FE240E940625E0EEF0E08081816076
:104930008083E8EDF0E080818F77808319BCA7ED5C
:10494000B0E08C918E7F8C9380818F7E80831092DB
:10495000F30208950F931F93CF93DF930E94FE24D9
:104960000E940625C8EDD0E088818F7788838881F2
:104970008068888388818F7D888319BC1092F402B7
:104980001092F0021092F2021092F10200EE10E08A
:10499000F80180818B7F808388818160888342E0F9
:1049A00060E080E00E940C24E1EEF0E080818E7FE8
:1049B0008083E2EEF0E08081816080838081886086
:1049C0008083F80180818E7F8083888180618883E5
:1049D000DF91CF911F910F910895E8EDF0E0808174
:1049E0008F7E8083E7EDF0E080818160808384E0CA
:1049F00082BF81E08093F3020C94AA24E8EDF0E0FA
:104A000080818E7F80831092E20008951092DA00F8
:104A10001092E10008951F920F920FB60F92112489
:104A20002F933F934F935F936F937F938F939F93B6
:104A3000AF93BF93EF93FF938091E10082FF0BC090
:104A40008091E20082FF07C08091E1008B7F80931C
:104A5000E1000E9475278091DA0080FF19C08091E3
:104A6000D80080FF15C08091DA008E7F8093DA0035
:104A70008091D90080FF96C080E189BD82E189BD27
:104A800009B400FEFDCF81E08093F4020E9466210C
:104A90008091E10080FF19C08091E20080FF15C085
:104AA0008091E2008E7F8093E2008091E20080613D
:104AB0008093E2008091D80080628093D80019BC76
:104AC00085E08093F4020E9478218091E10084FFC8
:104AD0002BC08091E20084FF27C080E189BD82E184
:104AE00089BD89B5982F917080FFFBCF8091D80048
:104AF0008F7D8093D8008091E1008F7E8093E100CC
:104B00008091E2008F7E8093E2008091E2008160DC
:104B10008093E2008091F002882309F449C084E088
:104B20008093F4020E9479218091E10083FF29C0E3
:104B30008091E20083FF25C08091E100877F809310
:104B4000E10082E08093F4021092F0028091E10093
:104B50008E7F8093E1008091E2008E7F8093E2005F
:104B60008091E20080618093E20042E060E080E0BA
:104B70000E940C248091F00088608093F0000E94D5
:104B80007721FF91EF91BF91AF919F918F917F918D
:104B90006F915F914F913F912F910F900FBE0F90AA
:104BA0001F90189519BC1092F4020E94742170CFC6
:104BB0008091E30087FD93E09093F402B3CF1F92BE
:104BC0000F920FB60F9211242F933F934F935F9341
:104BD0006F937F938F939F93AF93BF93CF93DF9305
:104BE000EF93FF93D091E900DF708091EC00C82F24
:104BF000C17080FDC0E81092E9008091F000877FCD
:104C00008093F00078940E9423261092E90080910E
:104C1000F00088608093F000CD2BCF70C093E90046
:104C2000FF91EF91DF91CF91BF91AF919F918F91C4
:104C30007F916F915F914F913F912F910F900FBE98
:104C40000F901F9018951F93CF93DF93CDB7DEB7CA
:104C5000AA970FB6F894DEBF0FBECDBF85EF92E0E6
:104C60002091F100FC012193CF01F2E08D3F9F07DD
:104C7000B9F70E9485218091E80083FF1EC18091D1
:104C8000F5029091F6029A3008F017C1E92FF0E092
:104C9000EF5DF64D0C94D327803899F0823809F0F7
:104CA0000CC18091F9028F70873008F006C18093A3
:104CB000E9008091EB0085FB882780F91092E900DC
:104CC00006C08091F1029091F20291118260909160
:104CD000E800977F9093E8008093F1001092F10034
:104CE0008091E8008E77E5C0882309F4D3C0823034
:104CF00009F0E3C08091F7028111D6C08091F902DA
:104D00008F702FEF280F263008F0D7C08093E9006E
:104D10002091EB0020FFC8C0933031F48091EB006C
:104D200080628093EB00C0C09091EB009061909303
:104D3000EB0021E030E001C0220F8A95EAF72093D2
:104D4000EA001092EA008091EB008860EACF8111BE
:104D5000B4C01091F7021F778091E3008078812B17
:104D60008093E3008091E800877F8093E8000E94B1
:104D700040248091E80080FFFCCF8091E3008068B0
:104D80008093E30082E0111183E08093F40295C0E8
:104D90008058823008F091C08091F7029091F8021B
:104DA0008C3D23E09207A1F583E08A838AE2898320
:104DB0004FB7F894DE01139620E03EE051E2E32F76
:104DC000F0E050935700E49120FF03C0E295EF70AC
:104DD0003F5FEF708E2F90E0EA30C0F0C7968D9362
:104DE0009D932F5F243159F74FBF8091E800877F53
:104DF0008093E8006AE270E0CE0101960E944F23A2
:104E00008091E8008B778093E80057C0C096E7CF89
:104E10006091F9027091FA02AE014F5F5F4F0E94FC
:104E20007B22BC01892B09F448C09091E800977F50
:104E30009093E80089819A810E94AD23E1CF803868
:104E4000E1F58091E800877F8093E8008091F0028F
:104E50008093F10045CF811130C09091F7029230DC
:104E600060F58091E800877F8093E8009093F002DE
:104E70000E9440248091F002882311F084E005C054
:104E80008091E30087FDFACF81E08093F4020E94D5
:104E90007B2113C08091F702813079F481E0933057
:104EA00009F080E08093F2021092E9008091E8001E
:104EB000877F8093E8000E9440248091E80083FF70
:104EC0000AC08091E800877F8093E8008091EB0022
:104ED00080628093EB00AA960FB6F894DEBF0FBEF7
:104EE000CDBFDF91CF911F9108950895CF93809109
:104EF000F4028823A1F0C091E900CF709091EC00FA
:104F0000892F817090FD80E8C82B1092E900809174
:104F1000E80083FD0E942326CF70C093E900CF9163
:104F20000895991B79E004C0991F961708F0961B05
:104F3000881F7A95C9F78095089587FB082E062665
:104F400087FD819567FD61950E9491270EF49195EB
:104F500007FC81950895AA1BBB1B51E107C0AA1F3E
:104F6000BB1FA617B70710F0A61BB70B881F991F0A
:104F70005A95A9F780959095BC01CD01089597FBAE
:104F8000072E16F4009407D077FD09D00E94AB27B6
:104F900007FC05D03EF4909581959F4F089570953C
:104FA00061957F4F0895EE0FFF1F0590F491E02D5E
:104FB00009948F929F92AF92BF92CF92DF92EF921D
:104FC000FF92CF93DF93EC01688179818A819B8185
:104FD000611571058105910521F464E279ED8BE598
:104FE00097E02DE133EF41E050E00E948A2849012B
:104FF0005A019B01AC01A7EAB1E40E94A9286B0108
:105000007C01ACEEB4EFA50194010E94B728DC014D
:10501000CB018C0D9D1DAE1DBF1DB7FF03C00197B9
:10502000A109B04888839983AA83BB839F77DF91C6
:10503000CF91FF90EF90DF90CF90BF90AF909F9077
:105040008F9008950E94D927089580E091E00E94F2
:10505000D9270895B0E0A0E080930001909301016A
:10506000A0930201B09303010895FC014150504008
:1050700030F001900616D1F73197CF0108958827B7
:1050800099270895F999FECF92BD81BDF89A992785
:1050900080B50895A6E1B0E044E050E00C947C288F
:1050A000A8E1B0E042E050E00C947C28262FF9996A
:1050B000FECF92BD81BDF89A019700B4021639F077
:1050C0001FBA20BD0FB6F894FA9AF99A0FBE089548
:1050D0000396272F0E9457280E945628252F0E94AA
:1050E0005728242F0C9457280196272F0E945728C1
:1050F0000C945628DC01CB01FC01F999FECF06C0C7
:10510000F2BDE1BDF89A319600B40D924150504085
:10511000B8F70895052E97FB1EF400940E94A1286D
:1051200057FD07D00E94BC2807FC03D04EF40C9416
:10513000A12850954095309521953F4F4F4F5F4F97
:10514000089590958095709561957F4F8F4F9F4FF3
:1051500008950E94DE28A59F900DB49F900DA49FF6
:10516000800D911D11240895B7FF0C94A9280E9469
:10517000A928821B930B0895A1E21A2EAA1BBB1B20
:10518000FD010DC0AA1FBB1FEE1FFF1FA217B30713
:10519000E407F50720F0A21BB30BE40BF50B661F29
:1051A000771F881F991F1A9469F7609570958095ED
:1051B00090959B01AC01BD01CF010895A29FB00164
:1051C000B39FC001A39F700D811D1124911DB29F3B
:1051D000700D811D1124911D0895F894FFCFAF0C1F
:1051E000B70CBE0CC30CC80CCD0CD20CD70CDC0C0D
:1051F000E10CE60CEB0CEF0CF40CF70CFA0CFD0CCC
:10520000000D020D050DA712A712FF12FF12511378
:105210006D13D412D412AF133B144A144A14A614BB
:10522000D412D412AF14241524152D152D152F15B5
:105230002D152D152D152415241534152D152D1569
:1052400034154C2674265D2774265D27A726C826AC
:065250005D271F272B273C
:10525600010000000102000700070701191A1B1CC4
:105266001D1E1F20212278022800680178001400E4
:1052760001000100010001001000200010001000D4
:10528600100001000400200002A9202021F520F1D1
:1052960020DF2001E200E900EA00B500B600B70011
:1052A600CD008301CC008A019201940121022302E0
:1052B60024022502260227022A02B300B4006F0048
:1052C600700081828337F0F19192F790000102021B
:1052D60002020606060909090909090F0F0F0F0F31
:1052E6000F15151518191919191919191919192335
:1052F6002425252525252500FF0100010000FFFFA7
:105306000000010001FF00F597F434E200E900EA2D
:1053160000B500B600B700CD008301CC008A01922B
:105326000194012102230224022502260227022AD1
:0C53360002B300B4006F0070008182839D
:00000001FF
